:100000000C9434000C943E000C943E000C943E0082
:100010000C943E000C943E000C943E000C943E0068
:100020000C943E000C943E000C943E000C943E0058
:100030000C943E000C943E000C943E000C943E0048
:100040000C943E000C943E000C943E000C943E0038
:100050000C943E000C943E000C943E000C943E0028
:100060000C943E000C943E0011241FBECFEFD8E04C
:10007000DEBFCDBF0E9440000C9468000C940000CD
:1000800015B8209A5A9A1AB880E090E020E030E043
:1000900069B141E050E0762F747062FD40E021309C
:1000A000310569F4772359F02FEF37EE63E02150E3
:1000B00030406040E1F700C0000021E08227009757
:1000C00029F0289A81E090E09A01E2CF15B8FCCFA0
:0400D000F894FFCFD2
:00000001FF
