:100000000C9434000C943E000C943E000C943E0082
:100010000C943E000C943E000C943E000C943E0068
:100020000C943E000C943E000C943E000C943E0058
:100030000C943E000C943E000C943E000C943E0048
:100040000C943E000C943E000C943E000C943E0038
:100050000C943E000C943E000C943E000C943E0028
:100060000C943E000C943E0011241FBECFEFD8E04C
:10007000DEBFCDBF0E944A000C9491000C9400009A
:1000800015B880FD289A81FD299A82FD2A9A83FD60
:100090002C9A089515B88FEF84B95A9A5C9A1AB8B9
:1000A000C0E0D0E020E030E080E090E049B101E045
:1000B00010E0542F547042FF00E0019761F4511199
:1000C0000AC04FEF87EE93E0415080409040E1F747
:1000D00000C00000219689B1EE24E394F12C982F02
:1000E000907184FFE12C2130310569F491110BC02E
:1000F0002FEF47EE83E0215040408040E1F700C001
:100100000000219730F0C031D1052CF0CFE0D0E0D5
:1001100002C0C0E0D0E0CE010E9440009701C801BB
:06012000C5CFF894FFCFEB
:00000001FF
